:020000040800F2
:1000000088900020954C00086F01000871010008DD
:1000100075010008790100087D010008000000005A
:100020000000000000000000000000008101000846
:100030008301000800000000036A00084D4A000820
:10004000AF4C0008AF4C0008AF4C0008AF4C0008A4
:10005000AF4C0008AF4C0008AF4C0008AF4C000894
:10006000AF4C0008AF4C0008AF4C0008AF4C000884
:10007000AF4C0008AF4C0008AF4C0008AF4C000874
:10008000AF4C0008AF4C0008AF4C0008AF4C000864
:10009000AF4C0008AF4C0008AF4C0008AF4C000854
:1000A000AF4C0008AF4C0008AF4C0008AF4C000844
:1000B000AF4C0008DF450008AF4C0008AF4C00080B
:1000C000AF4C0008AF4C0008AF4C0008AF4C000824
:1000D000AF4C00080B4C0008AF4C0008AF4C0008B8
:1000E000AF4C0008AF4C0008AF4C0008AF4C000804
:1000F000AF4C0008AF4C0008AF4C0008AF4C0008F4
:10010000AF4C0008AF4C0008AF4C0008AF4C0008E3
:10011000AF4C0008AF4C0008AF4C0008AF4C0008D3
:10012000AF4C0008AF4C0008AF4C0008AF4C0008C3
:10013000DFF80CD012F004FF00480047450100082A
:100140008890002010B511F003FB06F024FF032374
:10015000044A0021044807F015FF07F039F8002091
:1001600010BD000074060020C117010870477047D9
:1001700000BFFEE700BFFEE700BFFEE700BFFEE7EF
:1001800070477047704700000CB500200190009048
:100190006B48006840F480306949086000BF6848D7
:1001A000006800F4003000900198401C0190009815
:1001B00018B90198B0F5A06FF1D16148006810F44A
:1001C000003F02D00120009001E000200090009844
:1001D000012842D15B48006840F01000594908608E
:1001E0000846006820F0030008600846006840F0F8
:1001F000020008605248406851494860084640681B
:1002000048600846406840F480604860084640689E
:1002100020F47C1048600846406840F4E8104860CC
:100220000846006840F08070086000BF44480068DD
:1002300010F0007FFAD04248406820F003004049A7
:1002400048600846406840F00200486000BF3C48F3
:10025000406800F00C000828F9D10CBD10B5FFF77C
:1002600093FF10BD10B53648006840F001003449D6
:1002700008600846406834490840314948600846EB
:100280000068324908402E4908600846006820F49A
:10029000802008600846406820F4FE0048604FF463
:1002A0001F008860FFF7DAFF4FF000602849086000
:1002B00010BD10B5002100200022214B5B6803F027
:1002C0000C0121B1042906D0082928D107E0214BCF
:1002D000214C236027E01F4B1F4C236023E0184B69
:1002E0005B6803F47010164B5B6803F480320223E2
:1002F00003EB904022B9194B4343174C23600DE0A8
:100300000F4B5B6813F4003F04D0144B4343124C73
:10031000236003E00F4B43430F4C236003E00D4B7E
:100320000D4C236000BF00BF054B5B68C3F3031394
:100330000B4CE15C084B1B68CB40074C236010BDA5
:1003400000100240002002400000FFF8FFFFF6FE10
:1003500008ED00E000127A000000002000093D00D6
:10036000040000204FF48071FE4A51614900516140
:10037000FD49086080215161116189001161704758
:100380004FF48071F74A116149005161F6490860E4
:1003900080215161116189001161704710B54FF0E2
:1003A0008830F1490C390860091D08600020EE49C9
:1003B00008608815EB4908614000486140204861A9
:1003C000EA488088A0F50941893902D1022004F069
:1003D0006BFBE548001F006884B24020E1490861DA
:1003E000C00008614FF03330DF490C390860091D47
:1003F00008604FF6FF70DC490860204610BD10B55C
:1004000004460B462046FFF7ADFF4FF48070D549F8
:10041000086140004861D448036080204861086159
:100420008000086110BD10B504462046FFF79AFF12
:10043000FFF7B4FF10BD00B5CC490889FFF792FF64
:1004400000BD4FF48071C74A116149005161C6492E
:10045000086080215161116189001161704730B5D8
:10046000014601F01F04C1F34513CA0AE50205EB7A
:1004700043151544A8B230BD30B504460D46BB48FF
:100480008088A0F51341413905D0B8488088A0F58F
:10049000A641103940D1B5494889FFF763FF4FF4B1
:1004A0008070B0490861400048612012AE49086080
:1004B0008020AC49486108618000086140100861F3
:1004C00040004861E0B2A84908608020A549486121
:1004D000086180000861A5498889FFF743FF4FF450
:1004E0008070A04908614000486128129E49086058
:1004F00080209C49486108618000086140100861C3
:1005000040004861E8B298490860802095494861F8
:10051000086180000861B9E094488088A0F5D04166
:10052000043949D191488079012804D18F48008845
:10053000401E001B84B28D494889FFF713FF4FF41A
:10054000807088490861400048612012864908602F
:10055000802084494861086180000861401008617A
:1005600040004861E0B28049086080207D494861D0
:100570000861800008617D498889FFF7F3FE4FF428
:100580008070784908614000486128127649086007
:10059000802074494861086180000861401008614A
:1005A00040004861E8B27049086080206D494861A8
:1005B00008618000086169E06C488088A0F5AA4164
:1005C000103950D169494889FFF7CCFE4FF480704B
:1005D0006449086140004861201263490860802036
:1005E0006049486108618000086160494989491C87
:1005F00088B2FFF7B7FE4FF480705A490861400097
:100600004861E0B258490860802056494861086155
:100610008000086155498889FFF7A4FE4FF4807077
:10062000504908614000486128124F490860802005
:100630004C4948610861800008614C498989491C1E
:1006400088B2FFF78FFE4FF4807046490861400082
:100650004861E8B244490860802042494861086125
:100660008000086112E041488079012804D13F48A8
:100670000088401E001B84B23C4948892146FFF790
:10068000BEFE3A4988892946FFF7B9FE30BD2DE9FB
:10069000F04105460E4635480088A84203DD334840
:1006A0004088B04202DC0020BDE8F0813146284697
:1006B000FFF7E2FE2D488088A0F5134141390BD0A9
:1006C0002A488088A0F5D041043905D02748808881
:1006D000A0F5A641103903D12E20FFF743FE0DE00F
:1006E00022488088A0F5AA41103904D14FF438502F
:1006F000FFF738FE02E02220FFF734FE4FF088308B
:1007000019490C390860091D08604FF6FF70164939
:10071000086088151349086140004861402048611D
:10072000012004F0C1F940200E4908614861012010
:1007300004F0BAF90C48001F006884B2402009494F
:1007400008610A488088A0F51341413912D0074852
:100750008088A0F5A64110390CD004488088A0F507
:10076000AA4105E0001001400C0C01407806002071
:1007700010390ED14020FE494861FE4800681FFA3A
:1007800080F840200861E7B24FF6FF7000EA0727C3
:100790000CE0F9488088A0F5D041043906D140200A
:1007A000F34948610861F348006884B24FF400706F
:1007B000EF4908614FF03330EE4908390860091DF0
:1007C00008604FF6FF70EB49091D0860EA48808811
:1007D000A0F51341253917D0E7488088A0F58A4154
:1007E000353911D0E4488088A0F58A4131390BD0E1
:1007F000E1488088A0F50941893905D0DE48808824
:10080000A0F53541053901D120464DE7DA48808809
:10081000A0F5134141390BD0D7488088A0F5A641F7
:10082000103905D0D4488088A0F5AA41103907D1E5
:10083000E012C002B91240EA411040EAE82033E772
:100840002046FFF70CFE2FE700B5CB488088A0F5C7
:10085000134141390BD0C8488088A0F5D0410439F4
:1008600005D0C5488088A0F5A641103903D12920BC
:10087000FFF778FD0FE0C0488088A0F5AA41103945
:1008800004D14FF42450FFF76DFD04E040F27311E2
:100890000720FFF7B4FD00BD00B5B7488088A0F57C
:1008A000134141390BD0B4488088A0F5D0410439B8
:1008B00005D0B1488088A0F5A641103903D1282081
:1008C000FFF750FD0EE0AC488088A0F5AA41103932
:1008D00004D14FF42050FFF745FD03E0002107202D
:1008E000FFF78DFD00BDF0B5054600240027A248A6
:1008F000807901281ED1A0488088A0F5D041043914
:1009000018D0082D15D2DFE805F00406080A0C0EF1
:10091000101206250DE007250BE0042509E005254A
:1009200007E0012505E0002503E0032501E002259D
:1009300000BF00BF90488088A0F51341413911D015
:100940008D488088A0F5D04104390BD08A48808832
:10095000A0F5A641103905D087488088A0F5AA41A6
:1009600010397DD1082D1CD2DFE805F00406090CF2
:100970000F12151800BF14E044F0800411E044F099
:1009800040040EE044F0C0040BE044F0200408E012
:1009900044F0600405E044F0A00402E044F0E00408
:1009A00000BF00BF74488088A0F5AA41103902D169
:1009B0004FF4585700E036276F488088A0F5A641CD
:1009C000103907D06C488088A0F5AA41103901D0B1
:1009D00044F0080468488088A0F5D041043901D16A
:1009E00044F0020421463846FFF709FD14F0200FB9
:1009F00003D16148807901280DD15F4800885E49A4
:100A00004988884214DA5C48068840885A49088038
:100A1000084646800CE05848008857494988884273
:100A200006DD5548068840885349088008464680B8
:100A300051488088A0F5AA4110397DD14E49488996
:100A4000FFF790FC4FF4807049490861400048610D
:100A500000204849091D086080204549486100E0A0
:100A60002FE108618000086143494989491C88B227
:100A7000FFF778FC4FF480703D4908614000486101
:100A800000203C49091D08608020394948610861FF
:100A90008000086138494989891C88B2FFF762FCE7
:100AA0004FF4807032490861400048613248008844
:100AB000401E00122F49091D086080202C49486102
:100AC0000861800008612C494989C91C88B2FFF778
:100AD00049FC4FF48070264908614000486126486F
:100AE0000078401EC0B22349091D086080202049BB
:100AF00048610861800008611F498889FFF732FC5E
:100B00004FF480701A49086140004861002019497B
:100B1000091D08608020164948610861800008614D
:100B200015498989491C88B2FFF71CFC4FF4807075
:100B30000F490861400000E042E0486100200D4993
:100B4000091D086080200A49486108618000086129
:100B500009498989891C88B2FFF704FC4FF4807029
:100B6000034908614000486103484088401E05E091
:100B700000100140080C0140780600200012FE49D8
:100B800008608020FD494861086180000861FC49D7
:100B90008989C91C88B2FFF7E5FB4FF48070F749DB
:100BA000086140004861F6488078401EC0B2F249B2
:100BB00008608020F1494861086180000861B2E066
:100BC000EF494889FFF7CEFB4FF48070EB4908618D
:100BD000400048610020E84908608020E7494861FA
:100BE00008618000086140100861400048610020F1
:100BF000E14908608020E14948610861800008619E
:100C00004010086140004861DD480088401E001225
:100C1000D94908608020D94948610861800008618D
:100C20004010086140004861D5480078401EC0B2BD
:100C3000D14908608020D14948610861800008617D
:100C4000CF498889FFF78EFB4FF48070CB4908614C
:100C5000400048610020C84908608020C7494861B9
:100C60000861800008614010086140004861002070
:100C7000C14908608020C14948610861800008615D
:100C80004010086140004861BD484088401E001285
:100C9000B94908608020B94948610861800008614D
:100CA0004010086140004861B5488078401EC0B2DD
:100CB000B14908608020B14948610861800008613D
:100CC00031E0082D1CD2DFE805F004070A0D0F12F1
:100CD000151844F0300413E044F0100410E044F020
:100CE00020040DE000BF0BE044F0380408E044F0BD
:100CF000280405E044F0180402E044F0080400BFB2
:100D000000BF9F488088A0F50941893904D1112787
:100D100046F24000044302E0032744F48054214695
:100D20003846FFF76CFBF0BD30B504460D4629464A
:100D30002046FFF7A1FBFFF77EFB4FF480708F4941
:100D40000861400048618F4800888B490860802016
:100D50008A49486108618000086130BD70B5044669
:100D60000D46164686488088A0F51341413905D0C6
:100D700083488088A0F5A641103940D18049488930
:100D8000FFF7F0FA4FF480707C4908614000486139
:100D90002012794908608020784948610861800004
:100DA00008614010086140004861E0B27249086083
:100DB0008020724948610861800008617049888913
:100DC000FFF7D0FA4FF480706C4908614000486129
:100DD00028126949086080206849486108618000DC
:100DE00008614010086140004861E8B2624908604B
:100DF000802062494861086180000861B9E060486C
:100E00008088A0F5AA41103950D15D494889FFF783
:100E1000A9FA4FF4807059490861400048612012D6
:100E20005549086080205549486108618000086183
:100E300053494989491C88B2FFF794FA4FF48070EE
:100E40004E49086140004861E0B24B49086080208B
:100E50004A49486108618000086149498889FFF76B
:100E600081FA4FF4807045490861400048612812BA
:100E7000414908608020414948610861800008615B
:100E80003F498989491C88B2FFF76CFA4FF480709A
:100E90003A49086140004861E8B23749086080205B
:100EA0003649486108618000086162E03448808802
:100EB000A0F5D041043949D131488079012804D1C5
:100EC0002F480088401E001B84B22D494889FFF737
:100ED00049FA4FF4807029490861400048612012A6
:100EE0002549086080202549486108618000086123
:100EF0004010086140004861E0B21F49086080204E
:100F00001E4948610861800008611D498889FFF712
:100F100029FA4FF48070194908614000486128128D
:100F20001549086080201549486108618000086102
:100F30004010086140004861E8B20F490860802015
:100F40000E49486108618000086112E00C48807910
:100F5000012804D10A480088401E001B84B20849B9
:100F600048892146FFF74BFA054988892946FFF74A
:100F700046FA4FF4807007E00C0C0140001001406D
:100F80007806002014000020FD49486140004861B7
:100F9000FC480089FC4908608020F94948610861E3
:100FA000800008614010086140004861F648066012
:100FB0008020486108618000086170BD10B504465A
:100FC000002C60D1EF498871F02008804FF4A070A8
:100FD000488008468088A0F5134141390BD0E94884
:100FE0008088A0F5D041043905D0E6488088A0F576
:100FF000A64110391AD12C20E24908812A204881C3
:101000002B20888108468088A0F5D041043905D07E
:10101000DC488088A0F5A641103906D14FF4A070B5
:10102000D84908804FF4F070488095E0D548808812
:10103000A0F50941893907D12220D24908814E20E3
:1010400048814F20888187E0CE488088A0F5AA415A
:10105000103910D14FF43050CA4908814FF428504C
:1010600048814FF42C5088814FF4F07008804FF481
:101070004870488070E02220C249088120204881C1
:101080002120888168E00120BE4988714FF4A0705A
:101090000880F020488008468088A0F51341413937
:1010A00005D0B8488088A0F5A641103907D12C207A
:1010B000B44908812A2048812B20888139E0B14831
:1010C0008088A0F5D041043907D12C20AD49088192
:1010D0002B2048812A2088812BE0AA488088A0F50F
:1010E0000941893907D12220A64908814F2048812A
:1010F0004E2088811DE0A3488088A0F5AA411039C0
:1011000010D14FF430509F4908814FF42850488146
:101110004FF42C5088814FF4487008804FF4F070E1
:10112000488006E02220974908812120488120201C
:10113000888194488088A0F5D041043905D0914831
:101140008088A0F5A641103906D14FF4F0708D4982
:1011500008804FF4A07048800020FFF7C4FB10BD4A
:101160002DE9FF4F04460D4616461F46A019401EA6
:1011700086B2E819401E87B282488088A0F51341E4
:1011800041390BD07F488088A0F5A641103905D0A1
:101190007C488088A0F5D041043975D179494889C7
:1011A000FFF7E0F84FF4807075490861400048612E
:1011B00020127549086080207149486108618000EB
:1011C00008614010086140004861E0B26E49086063
:1011D00080206B4948610861800008614010086107
:1011E00040004861301268490860802064494861C5
:1011F0000861800008614010086140004861F0B259
:101200006149086080205E4948610861800008618A
:101210005C498889FFF7A6F84FF480705849086147
:1012200040004861281258490860802054494861AC
:101230000861800008614010086140004861E8B220
:101240005149086080204E4948610861800008616A
:10125000401008614000486138124B490860802006
:1012600047494861086180000861401008614000FA
:101270004861F8B2444908608020414948610861EA
:1012800080000861F9E0FFE73E488088A0F5AA41A8
:1012900010397BD13B494889FFF764F84FF48070DF
:1012A00037490861400048612012374908608020B2
:1012B0003349486108618000086132494989491C05
:1012C00088B2FFF74FF84FF480702D490861400055
:1012D0004861E0B22C4908608020294948610861D2
:1012E0008000086127494989891C88B2FFF73AF8CC
:1012F0004FF4807022490861400048613012224951
:10130000086080201E4948610861800008611D490D
:101310004989C91C88B2FFF725F84FF48070184935
:10132000086140004861F0B2174908608020144904
:10133000486108618000086112498889FFF712F846
:101340004FF480700E4908614000486128120E4930
:10135000086080200A4948610861800008610949E5
:101360008989491C88B2FEF7FDFF4FF4807004495B
:10137000086140004861E8B203490860802006E047
:1013800000100140780600200C0C01402FE0FE49BF
:101390004861086180000861FC498989891C88B21C
:1013A000FEF7E0FF4FF48070F749086140004861A4
:1013B0003812F74908608020F349486108618000CD
:1013C0000861F2498989C91C88B2FEF7CBFF4FF446
:1013D0008070ED49086140004861F8B2EC4908604E
:1013E0008020E949486108618000086145E0E748DC
:1013F000807901280ED1A846B946E4480088801BB0
:10140000401E80B20190E1480088001B401E80B25F
:10141000009003E0A046B14601950097DB48808824
:10142000A0F5094189390CD14FF0440AD34648EA66
:1014300009201FFA80F8C1464520039046200290FB
:1014400007E04FF0500A4FF0510B52200390532009
:10145000029041465046FEF7D2FF49465846FEF7F5
:10146000CEFF01990398FEF7CAFF00990298FEF794
:10147000C6FF29462046FEF7FFFFBDE8FF8F08B5EF
:101480000121192003F02EFF0121C24803F043FD82
:101490004FF4F860ADF8000010208DF80300032031
:1014A0008DF802006946B84803F066FC4FF4F86115
:1014B000B54803F00CFD4FF6FF70ADF8000069462B
:1014C000B3480C3803F058FC4FF6FF71B0480C38A5
:1014D00003F0FDFC322003F00AFB01210020FEF79F
:1014E0008EFF322003F003FB0020FEF79CFFA7498C
:1014F000888008468088FF280ADB08468088A0F597
:101500007F41FF3904D0A1488088B0F5134F7CD1CA
:10151000D320FEF727FFFEF741FFFEF73FFFFEF760
:101520003DFF9A498880084680884FF6FF7101EA9E
:10153000002096498880FEF731FF94498988084346
:101540009249888008468088A0F5134141396CD0C3
:10155000BF20FEF707FFFEF721FFFEF71FFFFEF794
:101560001DFFFEF71BFF89498880084680884FF6DB
:10157000FF7101EA002085498880FEF70FFF83494B
:10158000898808438149888008468088A0F5D04131
:1015900004394AD0D420FEF7E5FEFEF7FFFEFEF741
:1015A000FDFEFEF7FBFE79498880084680884FF6ED
:1015B000FF7101EA002075498880FEF7EFFE73494C
:1015C000898808437149888008468088A0F5A6412B
:1015D00010392AD04FF45A40FEF7C4FEFEF7DEFE63
:1015E0004FF45B40FEF7BEFEFEF7D8FE67498880E9
:1015F000084680884FF6FF7101EA00206349888021
:101600004FF45C40FEF7AEFE00E00EE0FEF7C6FED3
:101610005E49898808435D49888008468088B0F51E
:10162000004F02D145F210508880584881885AA056
:1016300011F0C6FC55488088A0F5A641103940F04D
:101640008887ED20FEF78EFE0120FEF799FEFE2032
:10165000FEF796FEEE20FEF785FEDE20FEF790FEFA
:101660002120FEF78DFEF120FEF77CFE0120FEF723
:1016700087FEDF20FEF776FE1020FEF781FEC420F5
:10168000FEF770FE8F20FEF77BFEC620FEF76AFE97
:101690000020FEF775FEE220FEF772FEE220FEF764
:1016A0006FFEE220FEF76CFEBF20FEF75BFEAA2075
:1016B000FEF766FEB020FEF755FE0D20FEF760FE39
:1016C0000020FEF75DFE0D20FEF75AFE0020FEF71B
:1016D00057FE1120FEF754FE0020FEF751FE1920A0
:1016E000FEF74EFE0020FEF74BFE2120FEF748FEDF
:1016F0000020FEF745FE2D20FEF742FE0020FEF7FB
:101700003FFE3D20FEF73CFE0020FEF739FE5D2047
:10171000FEF736FE0020FEF733FE5D20FEF730FEBA
:101720000020FEF72DFEB120FEF71CFE8020FEF704
:1017300027FE0020FEF724FE8B20FEF721FE00206E
:10174000FEF71EFE9620FEF71BFE0020FEF718FE99
:10175000B220FEF707FE0020FEF712FE0020FEF783
:101760000FFE0220FEF70CFE0020FEF709FE03200C
:10177000FEF706FE0020FEF703FEB320FEF7F2FDA3
:101780000020FEF7FDFD0FE000100140780600206C
:101790000C0C014000023000204C43442049443AE4
:1017A00025780D0A000000000020FEF7E9FD00206A
:1017B000FEF7E6FD0020FEF7E3FD0020FEF7E0FD6A
:1017C0000020FEF7DDFD0020FEF7DAFD0020FEF729
:1017D000D7FD0020FEF7D4FD0020FEF7D1FD00204C
:1017E000FEF7CEFD0020FEF7CBFD0020FEF7C8FD82
:1017F0000020FEF7C5FD0020FEF7C2FD0020FEF729
:10180000BFFD0020FEF7BCFD0020FEF7B9FD002063
:10181000FEF7B6FD0020FEF7B3FD0020FEF7B0FD99
:101820000020FEF7ADFD0020FEF7AAFD0020FEF728
:10183000A7FDB420FEF796FD8B20FEF7A1FD00204A
:10184000FEF79EFD9620FEF79BFD0020FEF798FD1B
:10185000A120FEF795FD0020FEF792FDB520FEF7D2
:1018600081FD0220FEF78CFD0020FEF789FD03209C
:10187000FEF786FD0020FEF783FD0420FEF780FDC5
:101880000020FEF77DFDB620FEF76CFD0020FEF780
:1018900077FD0020FEF774FDB720FEF763FD002002
:1018A000FEF76EFD0020FEF76BFD3F20FEF768FDA2
:1018B0000020FEF765FD5E20FEF762FD0020FEF7CA
:1018C0005FFD6420FEF75CFD0020FEF759FD8C20D3
:1018D000FEF756FD0020FEF753FDAC20FEF750FD4D
:1018E0000020FEF74DFDDC20FEF74AFD0020FEF74C
:1018F00047FD7020FEF744FD0020FEF741FD9020DB
:10190000FEF73EFD0020FEF73BFDEB20FEF738FD25
:101910000020FEF735FDDC20FEF732FD0020FEF74B
:101920002FFDB820FEF71EFD0020FEF729FD002048
:10193000FEF726FD0020FEF723FD0020FEF720FD28
:101940000020FEF71DFD0020FEF71AFD0020FEF727
:1019500017FD0020FEF714FDBA20FEF703FD24203A
:10196000FEF70EFD0020FEF70BFD0020FEF708FD40
:101970000020FEF705FDC120FEF7F4FC2020FEF755
:10198000FFFC0020FEF7FCFC5420FEF7F9FC0020D1
:10199000FEF7F6FCFF20FEF7F3FC0020FEF7F0FC5C
:1019A000C220FEF7DFFC0A20FEF7EAFC0020FEF76B
:1019B000E7FC0420FEF7E4FC0020FEF7E1FCC32076
:1019C000FEF7D0FC3C20FEF7DBFC0020FEF7D8FC45
:1019D0003A20FEF7D5FC0020FEF7D2FC3920FEF7B6
:1019E000CFFC0020FEF7CCFC3720FEF7C9FC00201E
:1019F000FEF7C6FC3C20FEF7C3FC0020FEF7C0FC4F
:101A00003620FEF7BDFC0020FEF7BAFC3220FEF7C0
:101A1000B7FC0020FEF7B4FC2F20FEF7B1FC00203D
:101A2000FEF7AEFC2C20FEF7ABFC0020FEF7A8FC76
:101A30002920FEF7A5FC0020FEF7A2FC2620FEF7D9
:101A40009FFC0020FEF79CFC2420FEF799FC002060
:101A5000FEF796FC2420FEF793FC0020FEF790FC96
:101A60002320FEF78DFC0020FEF78AFC3C20FEF7C9
:101A700087FC0020FEF784FC3620FEF781FC002066
:101A8000FEF77EFC3220FEF77BFC0020FEF778FCA0
:101A90002F20FEF775FC0020FEF772FC2C20FEF7CD
:101AA0006FFC0020FEF76CFC2920FEF769FC00208B
:101AB000FEF766FC2620FEF763FC0020FEF760FCC4
:101AC0002420FEF75DFC0020FEF75AFC2420FEF7E0
:101AD00057FC0020FEF754FC2320FEF751FC0020A9
:101AE000FEF74EFCC420FEF73DFC6220FEF748FCEA
:101AF0000020FEF745FC0520FEF742FC0020FEF723
:101B00003FFC8420FEF73CFC0020FEF739FCF0206F
:101B1000FEF736FC0020FEF733FC1820FEF730FC01
:101B20000020FEF72DFCA420FEF72AFC0020FEF783
:101B300027FC1820FEF724FC0020FEF721FC502093
:101B4000FEF71EFC0020FEF71BFC0C20FEF718FC25
:101B50000020FEF715FC1720FEF712FC0020FEF710
:101B60000FFC9520FEF70CFC0020FEF709FCF3208B
:101B7000FEF706FC0020FEF703FCE620FEF700FC63
:101B80000020FEF7FDFBC520FEF7ECFB3220FEF740
:101B9000F7FB0020FEF7F4FB4420FEF7F1FB0020EA
:101BA000FEF7EEFB6520FEF7EBFB0020FEF7E8FBFF
:101BB0007620FEF7E5FB0020FEF7E2FB8820FEF72B
:101BC000DFFB0020FEF7DCFBC620FEF7CBFB20206E
:101BD000FEF7D6FB0020FEF7D3FB1720FEF7D0FB65
:101BE0000020FEF7CDFB0120FEF7CAFB0020FEF728
:101BF000C7FBC720FEF7B6FB0020FEF7C1FB0020A5
:101C0000FEF7BEFB0020FEF7BBFB0020FEF7B8FB93
:101C1000C820FEF7A7FB0020FEF7B2FB0020FEF76E
:101C2000AFFB0020FEF7ACFB0020FEF7A9FBC920AC
:101C3000FEF798FB0020FEF7A3FB0020FEF7A0FBB9
:101C40000020FEF79DFB0020FEF79AFB0020FEF728
:101C500097FB0020FEF794FB0020FEF791FB00208D
:101C6000FEF78EFB0020FEF78BFB0020FEF788FBC3
:101C70000020FEF785FB0020FEF782FB0020FEF728
:101C80007FFB0020FEF77CFB0020FEF779FB0020A5
:101C9000FEF776FBE020FEF765FB1620FEF770FBF3
:101CA0000020FEF76DFB1C20FEF76AFB0020FEF70C
:101CB00067FB2120FEF764FB0020FEF761FB362066
:101CC000FEF75EFB0020FEF75BFB4620FEF758FBAD
:101CD0000020FEF755FB5220FEF752FB0020FEF7D6
:101CE0004FFB6420FEF74CFB0020FEF749FB7A20F7
:101CF000FEF746FB0020FEF743FB8B20FEF740FB80
:101D00000020FEF73DFB9920FEF73AFB0020FEF78E
:101D100037FBA820FEF734FB0020FEF731FBB9208B
:101D2000FEF72EFB0020FEF72BFBC420FEF728FB5E
:101D30000020FEF725FBCA20FEF722FB0020FEF75D
:101D40001FFBD220FEF71CFB0020FEF719FBD92059
:101D5000FEF716FB0020FEF713FBE020FEF710FB5A
:101D60000020FEF70DFBF320FEF70AFB0020FEF734
:101D700007FBE120FEF7F6FA1620FEF701FB002034
:101D8000FEF7FEFA1C20FEF7FBFA0020FEF7F8FA39
:101D90002220FEF7F5FA0020FEF7F2FA3620FEF7D1
:101DA000EFFA0020FEF7ECFA4520FEF7E9FA0020F2
:101DB000FEF7E6FA5220FEF7E3FA0020FEF7E0FA1B
:101DC0006420FEF7DDFA0020FEF7DAFA7A20FEF74B
:101DD000D7FA0020FEF7D4FA8B20FEF7D1FA0020C4
:101DE000FEF7CEFA9920FEF7CBFA0020FEF7C8FAEC
:101DF000A820FEF7C5FA0020FEF7C2FAB920FEF7C8
:101E0000BFFA0020FEF7BCFAC420FEF7B9FA0020A2
:101E1000FEF7B6FACA20FEF7B3FA0020FEF7B0FAD2
:101E2000D220FEF7ADFA0020FEF7AAFAD820FEF77E
:101E3000A7FA0020FEF7A4FAE020FEF7A1FA00209E
:101E4000FEF79EFAF320FEF79BFA0020FEF798FAC1
:101E5000E220FEF787FA0520FEF792FA0020FEF74F
:101E60008FFA0B20FEF78CFA0020FEF789FA1B2070
:101E7000FEF786FA0020FEF783FA3420FEF780FA98
:101E80000020FEF77DFA4420FEF77AFA0020FEF7E4
:101E900077FA4F20FEF774FA0020FEF771FA6120FE
:101EA000FEF76EFA0020FEF76BFA7920FEF768FA6B
:101EB0000020FEF765FA8820FEF762FA0020FEF7A0
:101EC0005FFA9720FEF75CFA0020FEF759FAA62089
:101ED000FEF756FA0020FEF753FAB720FEF750FA45
:101EE0000020FEF74DFAC220FEF74AFA0020FEF766
:101EF00047FAC720FEF744FA0020FEF741FAD12046
:101F0000FEF73EFA0020FEF73BFAD620FEF738FA3D
:101F10000020FEF735FADD20FEF732FA0020FEF74A
:101F20002FFAF320FEF72CFA0020FEF729FAE3201F
:101F3000FEF718FA0520FEF723FA0020FEF720FA34
:101F40000A20FEF71DFA0020FEF71AFA1C20FEF701
:101F500017FA0020FEF714FA3320FEF711FA0020DA
:101F6000FEF70EFA4420FEF70BFA0020FEF708FAFF
:101F70005020FEF705FA0020FEF702FA6220FEF775
:101F8000FFF90020FEF7FCF97820FEF7F9F90020B0
:101F9000FEF7F6F98820FEF7F3F90020FEF7F0F9D6
:101FA0009720FEF7EDF90020FEF7EAF9A620FEF7EC
:101FB000E7F90020FEF7E4F9B720FEF7E1F9002089
:101FC000FEF7DEF9C220FEF7DBF90020FEF7D8F9B4
:101FD000C720FEF7D5F90020FEF7D2F9D120FEF791
:101FE000CFF90020FEF7CCF9D520FEF7C9F9002083
:101FF000FEF7C6F9DD20FEF7C3F90020FEF7C0F9B1
:10200000F320FEF7BDF90020FEF7BAF9E420FEF751
:10201000A9F90120FEF7B4F90020FEF7B1F901207B
:10202000FEF7AEF90020FEF7ABF90220FEF7A8F9A3
:102030000020FEF7A5F92A20FEF7A2F90020FEF7FE
:102040009FF93C20FEF79CF90020FEF799F94B2000
:10205000FEF796F90020FEF793F95D20FEF790F960
:102060000020FEF78DF97420FEF78AF90020FEF7B4
:1020700087F98420FEF784F90020FEF781F9932088
:10208000FEF77EF90020FEF77BF9A220FEF778F933
:102090000020FEF775F9B320FEF772F90020FEF775
:1020A0006FF9BE20FEF76CF90020FEF769F9C42035
:1020B000FEF766F90020FEF763F9CD20FEF760F920
:1020C0000020FEF75DF9D320FEF75AF90020FEF755
:1020D00057F9DD20FEF754F90020FEF751F9F320FF
:1020E000FEF74EF90020FEF74BF9E520FEF73AF92E
:1020F0000020FEF745F90020FEF742F90020FEF728
:102100003FF90020FEF73CF90220FEF739F90020E4
:10211000FEF736F92920FEF733F90020FEF730F9F3
:102120003C20FEF72DF90020FEF72AF94B20FEF7A0
:1021300027F90020FEF724F95D20FEF721F90020A1
:10214000FEF71EF97420FEF71BF90020FEF718F9C0
:102150008420FEF715F90020FEF712F99320FEF710
:102160000FF90020FEF70CF9A220FEF709F9002074
:10217000FEF706F9B320FEF703F90020FEF700F999
:10218000BE20FEF7FDF80020FEF7FAF8C420FEF7A7
:10219000F7F80020FEF7F4F8CD20FEF7F1F8002064
:1021A000FEF7EEF8D320FEF7EBF80020FEF7E8F894
:1021B000DC20FEF7E5F80020FEF7E2F8F320FEF75A
:1021C000DFF80020FEF7DCF8E620FEF7CBF8112060
:1021D000FEF7D6F80020FEF7D3F83420FEF7D0F84B
:1021E0000020FEF7CDF85620FEF7CAF80020FEF7D3
:1021F000C7F87620FEF7C4F80020FEF7C1F8772074
:10220000FEF7BEF80020FEF7BBF86620FEF7B8F830
:102210000020FEF7B5F88820FEF7B2F80020FEF7A0
:10222000AFF89920FEF7ACF80020FEF7A9F8BB2024
:10223000FEF7A6F80020FEF7A3F89920FEF7A0F815
:102240000020FEF79DF86620FEF79AF80020FEF7C2
:1022500097F85520FEF794F80020FEF791F85520E6
:10226000FEF78EF80020FEF78BF84520FEF788F881
:102270000020FEF785F84320FEF782F80020FEF7E5
:102280007FF84420FEF77CF80020FEF779F8E7207D
:10229000FEF768F83220FEF773F80020FEF770F8BA
:1022A0005520FEF76DF80020FEF76AF87620FEF75D
:1022B00067F80020FEF764F86620FEF761F800205A
:1022C000FEF75EF86720FEF75BF80020FEF758F88F
:1022D0006720FEF755F80020FEF752F88720FEF73A
:1022E0004FF80020FEF74CF89920FEF749F800203F
:1022F000FEF746F8BB20FEF743F80020FEF740F853
:102300009920FEF73DF80020FEF73AF87720FEF717
:1023100037F80020FEF734F84420FEF731F80020AB
:10232000FEF72EF85620FEF72BF80020FEF728F8CF
:102330002320FEF725F80020FEF722F83320FEF7D1
:102340001FF80020FEF71CF84520FEF719F80020C2
:10235000FEF716F8E820FEF705F80020FEF710F863
:102360000020FEF70DF89920FEF70AF80020FEF78E
:1023700007F88720FEF704F80020FEF701F8882010
:10238000FDF7FEFF0020FDF7FBFF7720FDF7F8FFCC
:102390000020FDF7F5FF6620FDF7F2FF0020FDF7B6
:1023A000EFFF8820FDF7ECFF0020FDF7E9FFAA20F2
:1023B000FDF7E6FF0020FDF7E3FFBB20FDF7E0FFA0
:1023C0000020FDF7DDFF9920FDF7DAFF0020FDF783
:1023D000D7FF6620FDF7D4FF0020FDF7D1FF552081
:1023E000FDF7CEFF0020FDF7CBFF5520FDF7C8FF1E
:1023F0000020FDF7C5FF4420FDF7C2FF0020FDF7D8
:10240000BFFF4420FDF7BCFF0020FDF7B9FF5520BA
:10241000FDF7B6FF0020FDF7B3FFE920FDF7A2FFAF
:10242000AA20FDF7ADFF0020FDF7AAFF0020FDF771
:10243000A7FF0020FDF7A4FF0020FDF793FFAA20CF
:10244000FDF79EFFCF20FDF78DFF0020FDF798FFE1
:102450000020FDF795FF0020FDF792FF0020FDF71B
:102460008FFF0020FDF78CFF0020FDF789FF002083
:10247000FDF786FF0020FDF783FF0020FDF780FFBA
:102480000020FDF77DFF0020FDF77AFF0020FDF71B
:1024900077FF0020FDF774FF0020FDF771FF00209B
:1024A000FDF76EFF0020FDF76BFF0020FDF768FFD2
:1024B000F020FDF757FF0020FDF762FF5020FDF7E9
:1024C0005FFF0020FDF75CFF0020FDF759FF0020B3
:1024D000FDF756FFF320FDF745FF0020FDF750FF05
:1024E000F920FDF73FFF0620FDF74AFF1020FDF71A
:1024F00047FF2920FDF744FF0020FDF741FF3A2068
:10250000FDF730FF5520FDF73BFF1120FDF72AFFB7
:10251000642002F0ECFA2920FDF724FF3520FDF7B6
:1025200021FF0020FDF72CFF5120FDF71BFFFF20AE
:10253000FDF726FF5320FDF715FF2C20FDF720FFA8
:102540005520FDF70FFF8220FDF71AFF2C20FDF725
:1025500009FF0020FEF732FD08BD70B504460026D5
:10256000F848058840884543F6488088A0F5D04162
:10257000043916D1F3488079012812D10020F1499D
:1025800088712A2048812B20888100210846FDF788
:1025900073FF0120EB4988712B2048812A20888114
:1025A00003E000210846FDF767FFFDF744FF002622
:1025B0000DE04FF48070E449086140004861E34851
:1025C000046080204861086180000861761CAE428A
:1025D000EFD370BD2DE9FC4F05460E4617469846D1
:1025E000DDF82C9000200190D6488088A0F5D041DD
:1025F000043929D1D3488079012825D1AB46354605
:10260000D0480088C01B401E86B24746CD4800888F
:10261000A0EB0B00401E1FFA80F80020C94988710A
:102620002A2048812B20888143463A463146284655
:10263000CDF80090FFF7CEFF0120C24988712B2012
:1026400048812A20888127E0781B401C80B20190B5
:1026500034461FE021462846FDF70EFFFDF7EBFE4E
:102660004FF0000A11E04FF48070B7490861400054
:102670004861B648C0F80090802048610861800039
:1026800008610AF101001FFA80FA01988245EADB2D
:10269000601C84B24445DDDDBDE8FC8F2DE9F84FB8
:1026A00007460D4690469946DDF828B0A8EB07008E
:1026B000401C1FFA80FAA9EB0500401C80B2009074
:1026C000002420E0281981B23846FDF7D5FEFDF739
:1026D000B2FE002613E04FF480709B490861400071
:1026E000486104FB0A603BF81000984908608020AC
:1026F00095494861086180000861701C86B25645A2
:10270000E9DB601C84B200988442DBDBBDE8F88F13
:102710002DE9FF4F84B081468A4600200390029045
:102720000698A0EB09050798A0EB0A06CDF80490DF
:10273000CDF800A0002D01DD012705E00DB900272F
:1027400002E04FF0FF376D42002E02DD4FF001082E
:1027500006E016B94FF0000802E04FF0FF3876426D
:10276000B54201DD2C4600E034464FF0000B21E07D
:10277000009A91B2019A90B2FEF7D6FA03982844D3
:1027800003900298304402900398A04205DD03981C
:10279000001B03900198384401900298A04205DD87
:1027A0000298001B02900098404400900BF1010039
:1027B0001FFA80FB601C8345DADD08B0BDE8F08FAE
:1027C000F0B504460D4616461F462B4632462946AE
:1027D0002046FFF79DFF3B46224629462046FFF74D
:1027E00097FF3B46324639462046FFF791FF3B466E
:1027F000324629463046FFF78BFFF0BD2DE9F04306
:1028000006460F469046002445460320A0EB4809A3
:1028100048E03A1B91B2721B90B2FEF785FA3A1B60
:1028200091B2721990B2FEF77FFA7A1991B2321B07
:1028300090B2FEF779FA3A1B91B2721B90B2FEF792
:1028400073FA7A1B91B2321B90B2FEF76DFA3A1905
:1028500091B2721990B2FEF767FA7A1B91B23219EF
:1028600090B2FEF761FA7A1991B2321990B2FEF77E
:102870005BFA3A1991B2721B90B2FEF755FA641CDA
:10288000B9F1000F03DAA000801D814404E0601B51
:1028900080000A3081446D1E7A1991B2321990B2CB
:1028A000FEF742FAAC42B4DDBDE8F0832DE9F84F03
:1028B0000746884616461C46C3462046E31704EBE7
:1028C0005373DB1021464FEAE47C04EB5C7C4FEA57
:1028D000EC0CB4EBCC0C02D04FF0010C01E04FF04B
:1028E000000C6344224604EBD27C4FEA6C0C03FBE1
:1028F0000CF3DBB20093A6F12000C6B2002563E022
:102900000C2C07D106EB4600114901EB800010F8B2
:10291000059013E0102C05D10E4800EB061010F8BE
:1029200005900BE0182C07D106EBC6000A4901EB15
:10293000800010F8059001E0BDE8F88F4FF0000A24
:102940003CE0000078060020001001400C0C014023
:102950004A330108BE370108AE3D010819F0800F67
:1029600006D08F48028841463846FEF7F7F907E05F
:102970000A9828B98B48028841463846FEF7EEF996
:102980004FEA49604FEA106908F101001FFA80F828
:1029900085480088B84200DCCEE7A8EB0B00A042D7
:1029A00008D1D846781C87B27F480088B84200DC3E
:1029B000C2E706E00AF1010000F0FF0ABAF1080FD1
:1029C000CCDB00BF681CC5B20098854298DB00BF15
:1029D000B2E710B50246012000E050430B00A1F120
:1029E0000104E1B2F9D110BD2DE9FF4F81B00746D6
:1029F00091461E460E9D4FF0000A002439E0301B20
:102A0000401EC1B20A20FFF7E4FFB9FBF0F00A2133
:102A1000B0FBF1F201FB1208BAF1000F16D1701EE3
:102A2000A04213DDB8F1000F0ED10020AB4605EB3C
:102A3000DB71491001FB0471009088B22B46202203
:102A40000299FFF733FF12E04FF0010A0020AB4676
:102A500005EBDB71491001FB0471009088B208F1AD
:102A60003001CAB22B460299FFF720FF00BF601C5D
:102A7000C4B2B442C3DB05B0BDE8F08F2DE9FF4F0F
:102A800082B0064692461F46DDE90F4800200190BD
:102A900000254DE0781B401EC1B20A20FFF799FFC8
:102AA000BAFBF0F00A21B0FBF1F201FB1209019828
:102AB00050BB781EA84227DDB9F1000F22D118F0D3
:102AC000800F0FD008F00100A34604EBDB71491022
:102AD00001FB0561009088B2234630220399FFF77D
:102AE000E5FE0EE008F00100A34604EBDB7149109F
:102AF00001FB0561009088B2234620220399FFF76D
:102B0000D5FE13E00120019008F00100A34604EB7C
:102B1000DB71491001FB0561009088B209F13001B9
:102B2000CAB223460399FFF7C1FE00BF681CC5B2B5
:102B3000BD42AFDB06B0BDE8F08F2DE9F847044693
:102B40000D4690469946DDE9096704F0FF0A08EB57
:102B500004001FFA80F809EB05001FFA80F916E05F
:102B6000444502DB5446A81985B24D4500DB14E00C
:102B7000002000903A78334629462046FFF796FE1B
:102B8000304606EBD07104EB61018CB27F1C3878C3
:102B90007E2802DC38782028E2DA00BFBDE8F8871A
:102BA00014000020160000207806002010B501F067
:102BB000AFFB10BD70B50446002601F0C3FB2546EF
:102BC000E11704EB11610912A02202EB4101C8B226
:102BD00001F06CFC01F0F9FBE11704EB1161091243
:102BE000A4EB0121C8B201F061FC01F0EEFB01F0A1
:102BF000A9FBA12001F05AFC01F0E7FB002001F045
:102C000085FC064601F0C0FB304670BD70B5044639
:102C10000E4601F097FB2546E11704EB11610912FE
:102C2000A02202EB4101C8B201F040FC01F0CDFB53
:102C3000E11704EB11610912A4EB0121C8B201F004
:102C400035FC01F0C2FB304601F030FC01F0BDFB69
:102C500001F09AFB0A2001F04AFF70BD2DE9F04116
:102C600005460E461746002409E0E20026FA02F265
:102C7000D1B22A1990B2FFF7C9FF601CC4B2BC429E
:102C8000F3DBBDE8F0812DE9F04107460C46002654
:102C9000002509E036023919491B491E88B2FFF7A1
:102CA00089FF0644681CC5B2A542F3DB3046BDE887
:102CB000F08110B5FF20FFF77DFF0446552C01D1B0
:102CC000002010BD5521FF20FFF7A0FFFF20FFF7D8
:102CD00071FF0446552C01D10020F2E70120F0E7F6
:102CE00070B506460C46154608E03046721C96B292
:102CF000FFF760FF04F8010B681E85B2002DF4D1C8
:102D000070BD70B505460C46164606E0217828468B
:102D1000FFF77CFF681C85B2641C3000A6F101013E
:102D20008EB2F3D170BD000010B50A2001F0BCFED8
:102D300010BD8E48806940F010008C4988618C4835
:102D400000684FF20F01884389490860084600680F
:102D500043F203010843864908600846C06840F012
:102D60000200C8600846C06840F00800C8607047AC
:102D700010B57F48006820F470407D49086008461F
:102D8000006840F44050086001207A4908607A49A0
:102D9000C1F88001FFF7C8FF002076490860FFF7FF
:102DA000C3FF00207449C1F8800110BD10B5704800
:102DB000006820F470406E4908600846006840F4DE
:102DC0004050086000206D4908606B49C1F88C01D3
:102DD000FFF7AAFF012069490860FFF7A5FF01205E
:102DE0006549C1F88C0110BD10B500246048006829
:102DF00020F470405E4908600846006840F40040D6
:102E0000086001205B49086001F04EFE01205A492C
:102E1000C1F8800101F048FE07E0601CC4B2FA2C42
:102E200003DDFFF7C3FF012010BD554800680028EF
:102E3000F3D15249086000BFF6E710B500204F49B2
:102E400008604B48006820F4704049490860084613
:102E5000006840F4405008604FF000004649C1F857
:102E60008C01FFF761FF012044490860FFF75CFF18
:102E700000204149C1F8800110BD10B500203F4934
:102E800008603B48006820F47040394908600846F3
:102E9000006840F4405008604FF001003649C1F826
:102EA0008C01FFF741FF012034490860FFF73CFF28
:102EB00000203149C1F8800110BD70B504462C488E
:102EC000006820F470402A4908600846006840F411
:102ED00040500860002029490860054614E0E009D8
:102EE000244908604FEA44604FEA10644FF0010043
:102EF0002149C1F88001FFF717FF00201F49086032
:102F0000FFF712FF681CC5B2082DE8DB70BD70B575
:102F1000054600241648006820F4704014490860F3
:102F20000846006840F400400860002613E00020D6
:102F3000124908604FF01E0001F0B6FD01200E4955
:102F4000C1F880016006040E0D48006808B1601CDD
:102F5000C4B2701CC6B2082EE9DB15B9FFF78DFFAD
:102F600001E0FFF76AFF204670BD0000001002403C
:102F7000001001408C0122420000224280012242C6
:102F80000C0122422DE9F04104460E4617464FF04F
:102F90000008FFF7EDFE2820FFF78FFFFFF724FF63
:102FA0002012FFF78AFFFFF71FFFE0B2FFF785FF50
:102FB000FFF71AFF00250BE0705DFFF77EFFFFF7BC
:102FC00013FF8046B8F1000F00D003E0681CC5B2C3
:102FD000BD42F1DB00BFFFF7E9FE4046BDE8F081EE
:102FE00038B50546002400208DF800008DF801500A
:102FF00000BF09E09DF80000D049095D0844C0B257
:103000008DF80000601CC4B2B82CF3D39DF800000A
:10301000C043401CC0B28DF80000B822C74948F236
:103020004700FFF7AFFF0222694648F2FF00FFF7B3
:10303000A9FF002038BD2DE9F04105460F46164690
:10304000FFF796FE2820FFF738FFFFF7CDFE281286
:10305000FFF733FFFFF7C8FEE8B2FFF72EFFFFF7D9
:10306000C3FEFFF785FE2920FFF727FFFFF7BCFE11
:1030700000240BE0711EA14201D0012100E00021DB
:103080000846FFF744FF3855601CC4B2B442F1DB78
:10309000FFF78CFEBDE8F0811CB5A948806940F0BF
:1030A0001000A7498861A748006820F0F000A549F2
:1030B00008600846006840F0300008600846C068B4
:1030C00040F00200C8600846406820F47000486084
:1030D0000846406840F4401048600846C06840F424
:1030E0000050C860FFF725FE0020974908604FF0A8
:1030F0000A0001F0FCFC01209449C1F8B4010A2047
:1031000001F0F5FC8F48006820F0F0008D49086060
:103110000846006840F0800008600846C06820F05B
:103120000200C860642001F0E2FC0422694648F213
:103130004010FFF780FF00208DF80400694684A04E
:103140000FF03EFF85A168460FF0F9FA40BB022060
:103150008DF800000122694648F24000FFF712FF97
:103160000122694648F24700FFF765FF9DF800001D
:10317000602807DA9DF800107AA00FF021FF0120E7
:10318000FFF72EFF0A2001F0B2FC00208DF80000AE
:103190000122694648F24000FFF7F4FE00201CBD02
:1031A0000120FCE731B582B0002400257248007888
:1031B000401C71490870084600780A2190FBF1F222
:1031C00001FB120018B16C4800780A287EDA01224F
:1031D00002A948F24E10FFF72EFF9DF8080010F0EC
:1031E0000F0F6BD09DF8080000F00F00062865DA7D
:1031F0009DF8080000F00F01FF208840C0B2009049
:103200009DF80000C043C0B240F0C0005B4981F8A7
:103210002000002444E0594890F820000121A140FA
:1032200008423BD0564931F81400042201A9FFF7A7
:1032300002FF524890F8300010F0010F18D09DF8AE
:1032400004009DF8051000EB012081B24B481630B8
:1032500020F814109DF806009DF8071000EB0120DF
:10326000C0F5487081B245480C3020F8141015E0C4
:103270009DF804009DF8051000EB012081B23F4845
:103280000C3020F814109DF806009DF8071000EB94
:10329000012081B23948163020F81410601CC4B2E5
:1032A000052CB8DB01253548808920B93348C08A10
:1032B00008B90020029000202F4908709DF80800EE
:1032C00010F0800F0FD09DF8080000E00BE000F038
:1032D0000F00062807DA002000900122694648F214
:1032E0004E10FFF74FFE9DF8080000F08F00802879
:1032F0001AD1224890F8200010F0800F08D01F4803
:1033000090F8200020F080001C4981F820000BE09C
:103310004FF6FF7019498881C882084690F820004E
:1033200000F0E00081F8200013480078F02802DD6A
:103330000A201149087028463EBD00000A4B0108CA
:103340000010024000100140B4012242000022425D
:103350004354502049443A25730D0A00393134371B
:103360000000000044656661756C74205665723A11
:1033700025640D0A00000000180000201C00002039
:10338000C24B01082DE9F04104460E4617464FF0A6
:103390000008FFF7EDFCB220FFF78FFDFFF724FDDB
:1033A0002012FFF78AFDFFF71FFDE0B2FFF785FD52
:1033B000FFF71AFD00250BE0705DFFF77EFDFFF7BC
:1033C00013FD8046B8F1000F00D003E0681CC5B2C1
:1033D000BD42F1DB00BFFFF7E9FC4046BDE8F081EC
:1033E0002DE9F04105460F461646FFF7C1FCB22015
:1033F000FFF763FDFFF7F8FC2812FFF75EFDFFF70C
:10340000F3FCE8B2FFF759FDFFF7EEFCFFF7B0FC65
:10341000B320FFF752FDFFF7E7FC00240BE0711E1D
:10342000A14201D0012100E000210846FFF76FFD15
:103430003855601CC4B2B442F1DBFFF7B7FCBDE8FD
:10344000F08138B50446002000900CB18020009037
:10345000012269464FF45060FFF794FF38BD1CB558
:10346000002001900121102001F03CFF0220ADF866
:10347000000048208DF8030003208DF80200694603
:103480008C4801F079FC02218A4801F020FD4FF4BC
:103490000050ADF8000010208DF803006946854803
:1034A00001F06AFC4FF40051824801F010FDFFF773
:1034B00040FC0020804908604FF0640001F017FBD9
:1034C00001207E49C1F8B401642001F010FB012005
:1034D000FFF7B7FF012201A94FF45060FFF780FF0B
:1034E0009DF8041076A00FF06BFD9DF8040010F01D
:1034F000800F01D000201CBD0120FCE72DE9F14F19
:1035000082B04FF0000AD34670480078401C6F49E3
:103510000870084600780A2190FBF1F201FB1200C6
:1035200018B16A4800780A287EDA012202A9002030
:10353000FFF756FF9DF8080010F01F0F74D09DF89C
:10354000080000F01F0040F0C000614981F8200031
:103550004FF0000A74E05E4890F82000012101FA63
:103560000AF1084268D05B4931F81A00042201A927
:10357000FFF736FF564890F8300010F0010F2FD0BB
:103580009DF807109DF8062001EB02200FF0F0FADD
:103590000646514A514B0FF06BFA04460FF033FBCD
:1035A00081B24B48163020F81A109DF805109DF88E
:1035B000042001EB02200FF0DBFA0646484A494B93
:1035C0000FF056FA80460022474B0FF04EFA0446A1
:1035D0000FF019FB81B23E480C3020F81A102BE096
:1035E0009DF807109DF8062001EB02200FF0C0FAAD
:1035F0000646394A394B0FF03BFA04460FF003FBFD
:1036000081B233480C3020F81A109DF805109DF84F
:10361000042001EB02200FF0ABFA0646304A314B92
:103620000FF026FA044600E01AE00FF0ECFA81B23F
:103630002748163020F81A100AF1010000F0FF0A9E
:10364000BAF1050F87DB4FF0010B2148808920B9C3
:103650001F48C08A08B90020029000201B4908704A
:103660009DF8080010F01F0F1AD1194890F820009B
:1036700010F0800F08D0164890F8200020F080004D
:10368000134981F820000BE04FF6FF701049888144
:10369000C882084690F8200000F0E00081F8200081
:1036A0000A480078F02802DD0A20084908705846C8
:1036B000BDE8FE8F00100140B4012242000022420A
:1036C0004354502049443A25780D0A00190000203F
:1036D0001C000020CC4B01087B14AE47E17AD43F9C
:1036E000D881734694F6D23F00008940002100BF84
:1036F00019E010F0800F03D00122FE4B1A6002E0A7
:103700000022FC4B1A604FEA40624FEA12604FF011
:103710000002F94B1A604FF00102F84BC3F8802108
:1037200001F10102D1B20829E3DB704770B506460A
:10373000002500240020F0490860F049C1F88C0100
:10374000EF4908603046FFF7D1FF062001F0ACF9E1
:103750000020EA49C1F88001012001F0A5F901200B
:10376000E54908604FF00000E449C1F8800100BF5E
:1037700012E04FF6FF7000EA44040020DE490860C2
:103780004FF00100DD49C1F88001DE48006808B152
:10379000601C84B2681CC5B2102DEADB2411012024
:1037A000D7490860204670BD2DE9FE4380460027BA
:1037B000002406E04046FFF7B9FF2DF81400601C16
:1037C00084B2052CF6DB002416E0601C85B20FE005
:1037D0003DF814003DF81510884207DD3DF81460EF
:1037E0003DF815002DF814002DF81560681C85B201
:1037F000052DEDDB601C84B2042CE6DB00270124E0
:1038000005E03DF81400384487B2601C84B2042CF3
:10381000F7DB032097FBF0F086B23046BDE8FE836D
:103820002DE9F04104460D46B7480078FFF7BCFF8C
:103830000646B6480078FFF7B7FF074626802F8078
:103840000120BDE8F0817FB504460D4602A903A81A
:10385000FFF7E6FF064616B9002004B070BD6946C2
:1038600001A8FFF7DDFF06460EB90020F5E7BDF819
:103870000400BDF80C10884206DCBDF80C10BDF841
:103880000400323081420CDBBDF80C00BDF804109E
:10389000884236DCBDF80410BDF80C00323081429D
:1038A0002FDABDF80000BDF80810884206DCBDF82C
:1038B0000810BDF80000323081420CDBBDF8080072
:1038C000BDF8001088421CDCBDF80010BDF80800EF
:1038D0003230814215DABDF80C10BDF8042088188A
:1038E00000EBD071C1F34F012180BDF80810BDF885
:1038F0000020881800EBD071C1F34F01298001200E
:10390000ABE70020A9E770B504460D46164680488F
:10391000068004F10D018AB2193988B22B46294676
:10392000FEF7F6FE05F10D0083B2193881B222468A
:103930002046FEF7EDFE6A1C91B2621C90B2FDF7C4
:10394000F3F96A1C91B2621E90B2FDF7EDF96A1E9E
:1039500091B2621C90B2FDF7E7F96A1E91B2621E45
:1039600090B2FDF7E1F9062229462046FEF746FF10
:1039700070BD70B504460D4616466548068029465A
:103980002046FDF7D1F9611C88B22946FDF7CCF934
:10399000681C81B22046FDF7C7F96A1C91B2621C0F
:1039A00090B2FDF7C1F970BD2DE9F04104465948C8
:1039B0000068002856D12CB15749A1F10A00FFF741
:1039C00042FF3DE05449A1F10A00FFF73CFFB8B3C4
:1039D00051491639B1F92C000FF0BCF807464E4991
:1039E000163988890FF0BFF880464B481638416A6F
:1039F00040460EF020FF064639460EF0C4FE05464E
:103A00000FF0EDF8444916398881B1F92E000FF016
:103A1000A1F8074640491639C88A0FF0A4F8804635
:103A20003D481638816A40460EF005FF0646394685
:103A30000EF0A9FE05460FF0D2F837491639C882B4
:103A40003548163890F8200010F0800F27D1C0209C
:103A50003149163981F82000084681898182C18A5E
:103A6000C1831CE02C48163890F8200010F0800F1D
:103A70000AD02948163890F8200020F08000264906
:103A8000163981F820000AE0002123481638818287
:103A9000C1834FF6FF70204916398881C8821E48BD
:103AA000163890F8200000F08000BDE8F08110B5D5
:103AB000194816380422416A2820FFF7CFF8164823
:103AC00016380422816A2C20FFF7C8F812481638ED
:103AD000808D81B202223020FFF7C0F80E481638E0
:103AE000C08D81B202223220FFF7B8F80A4816389A
:103AF00014E000008C012242800122420000224298
:103B0000B40122420801224250000020510000204E
:103B100014000020040122423200002090F83010EE
:103B20003420FFF773F80A213520FFF76FF810BD36
:103B300010B53520FFF73EF804460A2C32D1042197
:103B40002820FFF7A0F8FE49486204212C20FFF747
:103B50009AF8FB49886202213020FFF794F800B2FE
:103B6000F749888502213220FFF78DF800B2F44929
:103B7000C8853420FFF71EF8F14981F83000084667
:103B800090F8300030B19020EE490870D020EE4916
:103B9000087005E0D020EB4908709020EA490870D1
:103BA000012010BD0020FCE72DE9FC5F04460D4616
:103BB00017461E46DDE90EABDDE90C894FF478406F
:103BC000E2490880E2A01021CDE90010E1484388D5
:103BD0000288A0212820FEF7B0FFDFA01021CDE948
:103BE0000010DC4843880288A0217820FEF7A5FF5A
:103BF000DAA01021CDE90010D64843880288B4210C
:103C00002820FEF79AFFD6A01021CDE90010D14858
:103C100043880288B4217820FEF78FFFD1A01021BD
:103C2000CDE90010CB4843880288C8212820FEF740
:103C300084FFCDA01021CDE90010C648438802883A
:103C4000C8217820FEF779FFC8A01021CDE9001027
:103C5000C04843880288DC212820FEF76EFFC4A0FC
:103C60001021CDE90010BB4843880288DC21782070
:103C7000FEF763FFBFA01021CDE90010B5484388CF
:103C80000288F0212820FEF758FF10200423224646
:103C9000A02100904020FEF7A7FE102004232A4612
:103CA000A02100909020FEF79FFE102004233A46AA
:103CB000B42100904020FEF797FE102004233246E6
:103CC000B42100909020FEF78FFE1020042342467E
:103CD000C82100904020FEF787FE102004234A46AA
:103CE000C82100909020FEF77FFE1020042352464A
:103CF000DC2100904020FEF777FE102004235A4676
:103D0000DC2100909020FEF76FFE1020009091487B
:103D1000018803236020109AFEF766FEBDE8FC9F31
:103D20002DE9F04F8BB00024002006904FF6FF7075
:103D3000FEF713FC1F208549088090480068102179
:103D40006423A022CDE9001028210846FEF7F5FEE5
:103D50004FF4784214210846FFF7D5FD002078493A
:103D600081F82000486245E200BF754841680120A3
:103D70008847734890F8200000F0C00040287DD1AB
:103D8000002006906E4890F8200020F040006C491A
:103D900081F820000846808907A921F82400684896
:103DA000C08A01EB84014880601CC4B2012C06D09B
:103DB000022C14D0032C25D0042C0FD138E04FF660
:103DC000FF7214210846FFF79EFD624909881439E5
:103DD00088B24FF478421421FFF795FDFAE15D496E
:103DE0000988143988B24FF6FF721421FFF78BFD52
:103DF00058484088143881B24FF478421420FFF7B5
:103E000082FDE7E153484088143881B24FF6FF72D3
:103E10001420FFF778FD4F4A5288143A91B24D4A68
:103E20001288143A90B24FF47842FFF76CFDD1E15A
:103E30000024F2E0524911F8241007AA32F82110A8
:103E40004F4A02EB8402527807AB33F82220881ADB
:103E500001D4014600E041420D46494911F82410C1
:103E600007AA02EB81014988454A02EB8402527895
:103E700007AB03EB82025288881A00E0ABE101D461
:103E8000014600E041420E466D437643A8190EF00C
:103E900080FECDE902010FF032FACDE904010EF007
:103EA000B2FE1FFA80F8364901EB8401897807AA2F
:103EB00032F82110324A02EB8402D27807AB33F891
:103EC0002220881A01D4014600E041420D462C49C7
:103ED00001EB8401897807AA02EB81014988284A0D
:103EE00002EB8402D27807AB03EB82025288881A75
:103EF00001D4014600E041420E466D437643A819C5
:103F00000EF047FECDE902010FF0F9F9CDE9040109
:103F10000EF079FE1FFA80F948460EF024FE07469F
:103F200040460EF020FE834639460EF0BAFC82462B
:103F300050460EF081FE4FF06632124B24E0000036
:103F40001C00002050000020510000201400002020
:103F500078313A007806002079313A0078323A0018
:103F600079323A0078333A0079333A0078343A00BB
:103F700079343A006661632069733A005400002086
:103F8000D64B01086666EE3FCDE904010EF068FEEF
:103F90000FD350460EF050FEC74AC84BCDE904017E
:103FA0000EF072FE05D3B8F1000F02D0B9F1000F88
:103FB00031D10024C24A5288143A91B2C04A1288C0
:103FC000143A90B24FF6FF72FFF79DFC4FF478421F
:103FD00014210846FFF797FCBA4950460EF02BFC17
:103FE00083460EF0FCFD87B2BDF82A10BDF828000C
:103FF000BDF8262002AB83C30192BDF824000090D7
:10400000BDF82230BDF82020BDF81E10BDF81C0000
:10401000FFF7CAFDA9E6601CC4B2032CFFF60AAF85
:10402000BDF82010BDF81C20881A0EF093FD07463D
:10403000A3490988A1F128000EF08CFD834639467A
:104040000EF02FFCA0494862BDF82010BDF81C20DE
:1040500088180EF07FFD03909B48416A03980EF08C
:10406000EAFB9749059008880EF07DFD04900599BC
:104070000EF0DBFB83464FF080410EF012FC07464A
:104080000EF094FD00B290498885BDF82610BDF869
:104090001E20881A0EF05EFD074689494988A1F165
:1040A00028000EF057FD834639460EF0FAFB86498C
:1040B0008862BDF82610BDF81E2088180EF04AFD53
:1040C00003908148816A03980EF0B5FB83467C49D2
:1040D00048880EF048FD594604900EF0A6FB4FF0BC
:1040E000804105900EF0DDFB07460EF05FFD00B24B
:1040F0007549C885486A0EF059FDB0F1000B01DB27
:10410000584601E0CBF1000002280ADC6E49886ABB
:104110000EF04CFD071E01DB384600E07842022815
:1041200039DD0024664A5288143A91B2644A1288F2
:10413000143A90B24FF6FF72FFF7E5FB4FF4784266
:1041400014210846FFF7DFFB60A01021CDE9001025
:104150005B48438802881A212820FEF7EEFC5A4863
:1041600090F8300008B9012000E00020564981F89D
:104170003000084690F8300030B19020584908705F
:10418000D0205849087005E0D0205549087090208B
:10419000544908702EE01F20534908804FF6FF70E5
:1041A000FEF7DBF951A01021CDE900104448438807
:1041B00002886E212320FEF7C0FC4FF47A7000F0D5
:1041C00096FCFFF774FC4FF6FF70FEF7C6F90BB0D4
:1041D000BDE8F08F00BF0A2000F089FC0698401C63
:1041E00080B206900698B0F57A7F02DDFFF7A0FC5A
:1041F00001E000BFB8E500BF00BFE8E708B5304800
:104200008088A0F5AA41103920D1FEF745FF18B9E2
:104210003C482D49486004E0FFF721F93A482A4913
:104220004860294890F8300040F08000264981F825
:104230003000084690F830002149897901F00101E9
:104240000843214981F83000002008BD01211120D8
:1042500001F048F842F20900ADF8000010208DF896
:10426000030003208DF802006946284800F084FD11
:104270000620ADF8000048208DF803006946234869
:1042800000F07AFD10491631A1F10A00FFF7C8FAD3
:10429000FEF78CFCFFF74CFC08B10020D5E74FF689
:1042A000FF70FEF75AF9FFF73BFDFFF700FCFFF741
:1042B0003FFC0120C9E70000CDCCCCCCCCCCF03FFA
:1042C000780600200000C8421C0000205450204EF8
:1042D00065656420726561646A757374210000000D
:1042E000500000205100002014000020546F75631E
:1042F000682053637265656E2041646A757374202B
:104300004F4B2100A5310008FD340008001001408A
:1043100008B50121102000F0E5FF4FF4C050ADF8C2
:10432000000010208DF8030003208DF8020069467C
:104330008F4800F021FD01208E4908608E49C1F8A8
:10434000AC0108BD10B58A48406820F47040884927
:1043500048600846406840F4405048600120874962
:1043600008608549C1F8B0014FF0040000F09CFBE3
:104370000020824908604FF0040000F095FB002007
:104380007D49C1F8B00110BD10B57948406820F4EE
:104390007040774948600846406840F440504860A3
:1043A0000020744908607449C1F8AC014FF0040062
:1043B00000F07AFB01206F4908606F49C1F8AC0139
:1043C0004FF0040000F070FB10BD10B500246848E9
:1043D000406820F47040664948600846406840F4F0
:1043E0000040486001206549086000F05DFB012045
:1043F0006149C1F8B00100F057FB07E0601CC4B28E
:10440000FA2C03DDFFF7C0FF012010BD5C480068F7
:104410000028F3D15749086000BFF6E710B5002027
:10442000544908605248406820F470405049486040
:104430000846406840F4405048604FF000004E4944
:10444000C1F8AC014FF0020000F02EFB01204949F9
:1044500008604FF0020000F027FB00204649C1F839
:10446000B00110BD10B500204249086040484068C6
:1044700020F470403E4948600846406840F440508F
:1044800048604FF001003C49C1F8AC014FF0020018
:1044900000F00AFB0120374908604FF0020000F0ED
:1044A00003FB00203449C1F8B00110BD70B50446CB
:1044B0002F48406820F470402D4948600846406805
:1044C00040F44050486000202A49086005461AE040
:1044D000E0092A4908604FEA44604FEA10644FF04F
:1044E000020000F0E1FA01202349C1F8B0010220E6
:1044F00000F0DAFA00201F4908604FF0020000F0D7
:10450000D3FA681CC5B2082DE2DB70BD70B5054654
:1045100000241748406820F4704015494860084658
:10452000406840F400404860002616E00020114931
:1045300008604FF0020000F0B7FA01200E49C1F800
:10454000B0016006040E0E48006808B1601CC4B2D9
:10455000012000F0A9FA701CC6B2082EE6DB15B9DE
:10456000FFF780FF01E0FFF759FF204670BD000014
:1045700000100140B001224200002242AC01224260
:104580002C0122427FB505460C460121022000F095
:10459000B6FEADF80850ADF804400020ADF80A00B2
:1045A000ADF8060001A9184801F04AFA01221146A7
:1045B000154801F0BCFD1D208DF8000000208DF88D
:1045C000010003208DF8020001208DF803006846E9
:1045D00001F0F9F801210C4801F08EFD7FBD10B506
:1045E0000121094802F051F860B10121064802F0AA
:1045F0005DF80648D0E90020521C40F10000034954
:10460000C1E9002010BD0000000400405800002057
:1046100010B500240020D04908604FF0900000F051
:10462000A5F9002000F0A2F9002000F09FF9002079
:1046300000F09CF9FF2000F099F944EA0024FF20E3
:1046400000F094F904430120C449C1F888012046D0
:1046500010BD08B50121042000F044FE1C20ADF877
:10466000000010208DF8030003208DF80200694639
:10467000BB4800F081FB1C21B94800F028FC00F089
:104680009CF9082000F0CFF9FFF7C2FFB549088078
:1046900008BD10B500240020AF4908604FF00500A8
:1046A00000F064F9FF2000F061F904460120AB49F5
:1046B000C1F88801204610BD10B504460020A64967
:1046C00008604FF0010000F051F9204600F04EF96B
:1046D0000120A249C1F8880110BD10B500209E49F3
:1046E00008604FF0060000F041F901209B49C1F835
:1046F000880110BD10B50020974908604FF00400F4
:1047000000F034F901209549C1F8880110BD2DE968
:10471000F04106460C46174600208F4908604FF0CE
:10472000030000F023F9C4F3074000F01FF9C4F3BD
:10473000072000F01BF9E0B200F018F9002505E0B1
:10474000FF2000F013F97055681C85B2BD42F7DBFD
:10475000012081490860BDE8F08110B500BFFFF776
:1047600098FF10F0010FFAD110BD2DE9F041064677
:104770000C461746FFF7B1FF0020774908604FF05D
:10478000020000F0F3F8C4F3074000F0EFF8C4F3C0
:10479000072000F0EBF8E0B200F0E8F8002504E0B4
:1047A000705D00F0E3F8681C85B2BD42F8DB0120C3
:1047B00069490860FFF7D1FFBDE8F0812DE9F041BC
:1047C00007460E461446F0B2C0F58075AC4200DCD8
:1047D000254612E02A4631463846FFF7C6FFAC426E
:1047E00000D10BE02F442E44601B84B2B4F5807FCF
:1047F00002DD4FF4807500E02546EBE700BFBDE821
:10480000F08110B504462403FFF767FFFFF7A5FF0B
:104810000020514908604FF0200000F0A7F8C4F3D1
:10482000074000F0A3F8C4F3072000F09FF8E0B2BF
:1048300000F09CF801204949C1F88801FFF78DFF7D
:1048400010BD2DE9F04781460F4616464FEA17384E
:10485000C7F30B0ACAF58054A64200DC344644E094
:104860004FEA08314FF480523F48FFF750FF0025D0
:1048700008E00AEB05003C49085CFF2800D003E093
:10488000681C85B2A542F4DB00BFA54216DA40469B
:10489000FFF7B7FF002507E019F8050005EB0A014F
:1048A000314A5054681C85B2A542F5DB4FEA083105
:1048B0004FF480522C48FFF781FF04E0224639462E
:1048C0004846FFF77BFFA64200D10FE008F1010840
:1048D0004FF0000AA1442744301B86B2B6F5805F32
:1048E00002DD4FF4805400E03446B9E700BFBDE874
:1048F000F08710B5FFF7F1FEFFF72FFF00201649F4
:1049000008604FF0C70000F031F801201349C1F8EA
:104910008801FFF722FF10BD10B500200E49086086
:104920004FF0B90000F022F801200C49C1F88801CD
:10493000032000F0B9F810BD10B50020064908604A
:104940004FF0AB0000F012F801200449C1F88801D3
:10495000032000F0A9F810BD880121420000214287
:1049600000080140600000208606002070B5054662
:10497000002405E0601CC4B2C82C01DD002070BD1D
:1049800002212F4801F0E5FF0028F3D029462C48EA
:1049900001F08CFF002405E0601CC4B2C82C01DDCE
:1049A0000020ECE70121264801F0D3FF0028F3D0D6
:1049B000234801F07DFFC0B2E1E708B5012141F2D3
:1049C000040000F08FFCE020ADF8000018208DF806
:1049D000030003208DF8020069461A4800F0CCF964
:1049E000E021184800F073FA0020174908804FF4BE
:1049F00082704880002088800220C88001200881C1
:104A000040024881382088810020C8810720088220
:104A10000B4801F075FE0121094801F016FFFF2047
:104A2000FFF7A4FF08BD10B504460748848101467E
:104A3000034801F065FE0121014801F006FF10BDA9
:104A400000300140000801408616002010B502F039
:104A5000B6FA02F0F4FB02F0CDFA10BD10B56FF01B
:104A6000040000F0FBFE324800683249B0FBF1F070
:104A7000314908702E4800682E49B0FBF1F44FF41C
:104A80007A70444301202D4908804FF0E0200069EE
:104A900040F002004FF0E0210861084644610069DF
:104AA00040F00100086110BD70B5034600224FF0D0
:104AB000E0267569204E367803FB06F400BF4FF000
:104AC000E026B16910E04FF0E026B06988420BD0D3
:104AD000884202D20E1A324402E02E1A0E443244A8
:104AE0000146A24200D300E0EDE700BF70BD70B503
:104AF000044613480078012812D1104800888442E7
:104B000007DB0E48008894FBF0F085B2284603F0DE
:104B1000A1FD0A48008894FBF0F100FB114084B22B
:104B20004FF47A7104FB01F0FFF7BEFF70BD000087
:104B30000000002000127A006200002064000020C3
:104B4000A200002010B54FF4A06000F037FE10BDA9
:104B5000014600BF704700BF4A4A128812F0400F5A
:104B6000FAD0C2B2474B1B1D1A80704710B586B0F1
:104B70000446012144F2040000F0B4FB414800F077
:104B800019FC4FF40070ADF8140003208DF81600E6
:104B900018208DF8170005A93B4800F0EDF84FF4F8
:104BA0008060ADF8140004208DF8170005A9364880
:104BB00000F0E2F825208DF8000003208DF80100B8
:104BC0008DF8020001208DF80300684600F0FBFD1F
:104BD00001940020ADF80800ADF80A00ADF80C0013
:104BE000ADF810000C20ADF80E0001A9254800F02A
:104BF00024FC012240F22551224800F0B6FC01219C
:104C0000204800F0A6FC06B010BD10B540F22551BA
:104C10001C4800F08FFD10B31A4800F00BFDC4B221
:104C20001A48008810F4004F2BD11848008810F45F
:104C3000804F0CD00A2C03D000201449088020E0BB
:104C40001248008840F400401049088019E00D2CFB
:104C500006D10E48008840F480400C49088010E0DE
:104C60000A480088C0F30D0009490C540748008821
:104C7000401C0649088008460088C72801DD00203E
:104C8000088010BD00380140000801406800002085
:104C9000981600200648804706480047FEE7FEE7D2
:104CA000FEE7FEE7FEE7FEE7FEE7FEE7FEE7FEE7DC
:104CB000650200083101000810B50446CA48844264
:104CC00008D10121042000F027FB0021042000F07E
:104CD00023FB46E0C548844208D10121082000F0AA
:104CE0001BFB0021082000F017FB3AE0C04884427B
:104CF00008D10121102000F00FFB0021102000F04E
:104D00000BFB2EE0BB48844208D10121202000F09B
:104D100003FB0021202000F0FFFA22E0B648844285
:104D200008D10121402000F0F7FA0021402000F0D6
:104D3000F3FA16E0B148844208D10121802000F046
:104D4000EBFA0021802000F0E7FA0AE0AC48844248
:104D500007D10121801500F0DFFA0021A01500F035
:104D6000DBFA10BD10B50121084600F0D5FA00218C
:104D7000012000F0D1FA10BD2DE9F04102460025D6
:104D80000026002000230024002791F803C00CF027
:104D90000F0591F803C01CF0100F03D091F802C06A
:104DA0004CEA050591F800C0BCF1000F31D0146841
:104DB00000202BE04FF0010C0CFA00F3B1F800C01A
:104DC0000CEA03069E4220D183004FF00F0C0CFA30
:104DD00003F7BC4305FA03FC4CEA040491F803C052
:104DE000BCF1280F06D14FF0010C0CFA00FCC2F800
:104DF00014C00AE091F803C0BCF1480F05D14FF090
:104E0000010C0CFA00FCC2F810C0401C0828D1D3D9
:104E10001460B1F800C0BCF1FF0F34DD546800200D
:104E20002EE000F1080C4FF0010808FA0CF3B1F87D
:104E300000C00CEA03069E4221D183004FF00F0C04
:104E40000CFA03F7BC4305FA03FC4CEA040491F89E
:104E500003C0BCF1280F05D100F1080C08FA0CF8CA
:104E6000C2F8148091F803C0BCF1480F07D100F1DB
:104E7000080C4FF0010808FA0CF8C2F81080401C2A
:104E80000828CED35460BDE8F0814FF6FF71018051
:104E9000022181700421C17070470246002093688E
:104EA0000B4201D0012000E00020704701468868D5
:104EB00080B2704702460020D3680B4201D0012027
:104EC00000E0002070470146C86880B27047016169
:104ED0007047416170470AB1016100E0416170476C
:104EE000C16070474FF480320A4382618161826100
:104EF00082698269704702460020424B18684FF66B
:104F00008073184040EA021008433E4B1860704717
:104F10003D49C8617047F0B50A46002300240021CE
:104F2000002500F00046B6F1004F02D1354EF16980
:104F300001E0344E7168C0F3034583B200F44016BB
:104F4000B6F5401F08D121F070612E4E766826F02C
:104F500070662C4F7E6012E000F48016B6F5801F5C
:104F600006D1032606FA05F4A14341F0706106E07C
:104F7000460D360103FA06F6B14341F0706122B1E5
:104F8000460D360103FA06F6314300F00046B6F14D
:104F9000004F02D11B4EF16101E01A4E7160F0BD6D
:104FA00030B500228B071C0F0F2303FA04F2154BB8
:104FB00008338C1053F824309343124C08348D106E
:104FC00044F8253023468C1053F824308C07240FE6
:104FD00000FA04F423430B4C08348D1044F82530B8
:104FE00030BD0A490860704700080140000C0140CC
:104FF000001001400014014000180140001C014055
:10500000002001400000014000002042DC0020425E
:10501000DD48006840F00100DB4908600846406850
:10502000DA490840D849486008460068D84908402D
:10503000D54908600846006820F4802008600846CA
:10504000406820F4FE0048604FF41F0088607047FD
:10505000CD49096821F48031CB4A116011460968B5
:1050600021F480211160B0F5803F03D0B0F5802F8E
:105070000ED106E0C449096841F48031C24A11608A
:1050800007E0C149096841F4A021BF4A116000E06E
:1050900000BF00BF704710B501460022002300206A
:1050A0004A11012A02D1B84C236806E0022A02D133
:1050B000B54C236A01E0B44C636A01F01F0201247D
:1050C00094401C4201D0012000E0002010BD38B502
:1050D000002000900024002500BF3120FFF7DBFFF7
:1050E00005460098401C00900098B0F5A06F01D0D4
:1050F000002DF2D03120FFF7CEFF08B1012400E0EF
:105100000024204638BD014600209F4A106820F048
:10511000F80040EAC100106070479E49086070477F
:1051200002460020984B586820F47C1042EA0103A4
:105130001843954B5860704796490866704701467A
:105140000020914A506820F00300084350607047E7
:105150008D48406800F00C007047014600208A4AE4
:10516000506820F0F000084350607047014600206E
:10517000854A506820F4E06008435060704701465B
:105180000020814A506820F4605040EAC10050601D
:10519000704729B17C4A527A02437B4B5A7204E031
:1051A000794A527A8243784B5A7270477A4908603A
:1051B000704701460020744A506820F4404008437C
:1051C000506070470021754A11706F4A82F82010B4
:1051D000012802D0042808D103E001216F4A117090
:1051E00004E005216D4A117000E000BF00BF704768
:1051F0006B49086070476449096A0143624A116259
:105200007047674944390860704730B50021002273
:10521000002400235C4D6D6805F00C0121B10429C8
:1052200005D0082923D105E05E4D056022E05D4DE3
:1052300005601FE0544D6D6805F47012524D6D68A5
:1052400005F48034022505EB92421CB9564D5543B6
:1052500005600BE04C4D6D6815F4003F03D0524DD6
:105260005543056002E04F4D5543056002E04D4D4A
:10527000056000BF00BF444D6D6805F0F0010909ED
:105280004A4D6B5C0568DD4045603F4D6D6805F437
:10529000E061090A454D6B5C4568DD4085603A4D2B
:1052A0006D6805F46051C90A404D6B5C4568DD408E
:1052B000C560354D6D6805F44041890B3C4D6B5C14
:1052C000C568B5FBF3F5056130BD29B12E4A5269B9
:1052D00002432D4B5A6104E02B4A526982432A4B08
:1052E0005A61704729B1284A92690243264B9A6154
:1052F00004E0254A92698243234B9A61704729B1A1
:10530000214AD2690243204BDA6104E01E4AD26985
:1053100082431D4BDA61704729B11B4AD2680243B0
:10532000194BDA6004E0184AD2688243164BDA60FF
:10533000704729B1144A12690243134B1A6104E001
:10534000114A12698243104B1A617047144940395F
:10535000086070470F49C86470470B49C8717047AF
:105360000948406A40F0807007494862704701462A
:105370000020054A92680A4201D0012000E0002086
:105380007047014988727047001002400000FFF822
:10539000FFFFF6FE00004242D800424220100240C9
:1053A0008004424200127A0000093D007000002093
:1053B0008000002010B50446FB48844209D1012139
:1053C0008803FFF7A9FF00214FF48040FFF7A4FFF7
:1053D00032E0F648844209D101214804FFF7A9FFD1
:1053E00000214FF40030FFF7A4FF25E0F04884428D
:1053F00009D101218804FFF79CFF00214FF4802090
:10540000FFF797FF18E0EB48844209D10121C80457
:10541000FFF78FFF00214FF40020FFF78AFF0BE01A
:10542000E548844208D101210805FFF782FF0021E9
:105430004FF48010FFF77DFF10BD2DE9F04786B0D7
:1054400005460E460024A24600BFA1460027B089AB
:1054500000B100BF2F462C8A4CF6FF700440F08844
:1054600004432C82AC894EF6F3100440B088318995
:105470000843718908430443AC81AC8A4FF6FF406E
:105480000440B0890443AC8201A8FFF7BEFEC648C1
:10549000874202D1DDF810A001E0DDF80CA0A88958
:1054A00010F4004F08D00AEBCA0000EB0A10316874
:1054B0004900B0FBF1F807E00AEBCA0000EB0A1064
:1054C00031688900B0FBF1F86420B8FBF0F004010A
:1054D0002009642101FB1089A88910F4004F08D02D
:1054E000322000EBC900B0FBF1F000F007000443EC
:1054F00008E0322000EB09106421B0FBF1F000F06D
:105500000F0004432C8106B0BDE8F0874FF416511C
:10551000016000218180C18001810C214181002135
:105520008181704710B502460020108A4FF2FF03B8
:1055300018400B884C8823438C882343CC88234312
:105540001843108210BD0021018041808180C180FC
:10555000704721B1828942F40052828104E082893D
:105560004DF6FF731A4082817047F0B50346002460
:10557000002600250020A1F510676A3F00D100BF7A
:105580001846C1F3421401F01F06012707FA06F579
:10559000012C01D10C3004E0022C01D1103000E0CC
:1055A00014301AB107682F43076002E00768AF4361
:1055B0000760F0BD1AB1838A0B43838202E0838ABD
:1055C0008B4383827047028A4FF6F0731A4002823F
:1055D000028A0A430282704782894FF2FF731A409F
:1055E000828182890A438281704721B1828942F097
:1055F0000202828104E082894FF6FD731A408281A3
:105600007047028A4FF6DF731A400282028A0A4309
:105610000282704721B1028A42F48042028204E091
:10562000028A4BF6FF731A4002827047C1F30802E8
:105630008280704701468888C0F3080070478189DE
:1056400041F0010181817047028BD2B20283028B4B
:1056500042EA012202837047028B02F47F420283F6
:10566000028B0A430283704721B1828A42F02002F2
:10567000828204E0828A4FF6DF731A40828270478A
:1056800021B1828A42F01002828204E0828A4FF6BF
:10569000EF731A408282704721B1828A42F0080279
:1056A000828204E0828A4FF6F7731A408282704742
:1056B00021B1828942F40042828103E08289C2F3EF
:1056C0000E028281704721B1828A42F40062828296
:1056D00004E0828A4FF2FF731A4082827047828A06
:1056E0004FF6FB731A408282828A0A438282704795
:1056F00021B1828A42F00202828204E0828A4FF65D
:10570000FD731A408282704702460020B1F5007F87
:1057100000D100BF13880B4201D0012000E000201F
:10572000704701F40072B2F5007F00D100BFCA4398
:105730000280704770B50246002400230025002037
:10574000A1F510666A3E00D100BFC1F3421501F019
:105750001F03012606FA03F3012D02D19689334077
:1057600006E0022D02D1168A334001E0968A3340CA
:105770000C12012606FA04F41688344013B10CB159
:10578000012000E0002070BD10B500220023A1F52B
:1057900010646A3C00D100BF0A1201249440A3B2F5
:1057A000DC43048010BD000000380140004400408C
:1057B00000480040004C0040005000403149014387
:1057C000314A1160704770B5002100230F22C47860
:1057D0000CB32D4C246804F4E064C4F5E064210AA1
:1057E000C1F10403CA40447804FA03F184781440F8
:1057F00021430901254C0678A155047804F01F05C2
:105800000124AC4005786D114FF0E02606EB8505CC
:10581000C5F8004109E0047804F01F050124AC40FC
:105820001B4D0678761145F8264070BD194A0A408E
:105830000243154B1B1F1A60704739B1124A121DE3
:1058400012680243104B1B1D1A6006E00E4A121D1F
:10585000126882430C4B1B1D1A607047042808D144
:105860004FF0E021096941F004014FF0E02211619D
:1058700007E04FF0E021096921F004014FF0E02238
:10588000116170470000FA050CED00E000E400E053
:1058900080E100E080FFFF1F10B50446FE4884420F
:1058A00008D10121C014FFF737FD0021E014FFF7F4
:1058B00033FDC4E0B4F1804F08D101210846FFF761
:1058C00038FD00210120FFF734FDB8E0F3488442A1
:1058D00008D101210220FFF72CFD00210220FFF753
:1058E00028FDACE0EE48844208D101210420FFF7F6
:1058F00020FD00210420FFF71CFDA0E0E9488442C0
:1059000008D101210820FFF714FD00210820FFF72E
:1059100010FD94E0E448844208D101211020FFF7F3
:1059200008FD00211020FFF704FD88E0DF488442D5
:1059300008D101212020FFF7FCFC00212020FFF7E7
:10594000F8FC7CE0DA48844208D101214014FFF7DA
:10595000E3FC00216014FFF7DFFC70E0D5488442CF
:1059600009D10121C804FFF7D7FC00214FF4002022
:10597000FFF7D2FC63E0D048844209D10121080539
:10598000FFF7CAFC00214FF48010FFF7C5FC56E07A
:10599000CA48844209D101214805FFF7BDFC002116
:1059A0004FF40010FFF7B8FC49E0C548844208D125
:1059B00001214020FFF7BDFC00214020FFF7B9FC8A
:1059C0003DE0C048844208D101218020FFF7B1FCAE
:1059D00000218020FFF7ADFC31E0BB48844208D1B4
:1059E00001218015FFF7A5FC0021A015FFF7A1FC00
:1059F00025E0B648844209D101210804FFF78CFC58
:105A000000214FF48030FFF787FC18E0B048844253
:105A100009D101214804FFF77FFC00214FF4003039
:105A2000FFF77AFC0BE0AB48844208D101218804DF
:105A3000FFF772FC00214FF48020FFF76DFC10BDD2
:105A400000220288944B98420ED0994B98420BD07A
:105A5000B0F1804F08D0914B984205D0904B9842BE
:105A600002D0904B984204D14FF68F731A404B8866
:105A70001A438D4B984207D08C4B984204D04FF676
:105A8000FF431A40CB881A4302808B8883850B889A
:105A90000385814B98420BD0854B984208D08B4BA5
:105AA000984205D08A4B984202D08A4B984201D145
:105AB0000B7A038601238382704770B5002400228D
:105AC0000023058C4FF6FE7635400584028C8388D2
:105AD000048B4FF68F752C40B51E2C400D882C433F
